{
  "_format": "hh-sol-artifact-1",
  "contractName": "Voting",
  "sourceName": "contracts/Voting.sol",
  "abi": [
    {
      "inputs": [
        {
          "internalType": "string",
          "name": "",
          "type": "string"
        }
      ],
      "name": "candidateVotes",
      "outputs": [
        {
          "internalType": "uint256",
          "name": "",
          "type": "uint256"
        }
      ],
      "stateMutability": "view",
      "type": "function"
    },
    {
      "inputs": [
        {
          "internalType": "uint256",
          "name": "",
          "type": "uint256"
        }
      ],
      "name": "candidates",
      "outputs": [
        {
          "internalType": "string",
          "name": "",
          "type": "string"
        }
      ],
      "stateMutability": "view",
      "type": "function"
    },
    {
      "inputs": [],
      "name": "getAllCandidates",
      "outputs": [
        {
          "internalType": "string[]",
          "name": "",
          "type": "string[]"
        }
      ],
      "stateMutability": "view",
      "type": "function"
    },
    {
      "inputs": [
        {
          "internalType": "string[]",
          "name": "_candidates",
          "type": "string[]"
        }
      ],
      "name": "getCandidateVotes",
      "outputs": [
        {
          "internalType": "uint256[]",
          "name": "",
          "type": "uint256[]"
        }
      ],
      "stateMutability": "view",
      "type": "function"
    },
    {
      "inputs": [
        {
          "internalType": "string",
          "name": "_candidate",
          "type": "string"
        }
      ],
      "name": "getVotes",
      "outputs": [
        {
          "internalType": "uint256",
          "name": "",
          "type": "uint256"
        }
      ],
      "stateMutability": "view",
      "type": "function"
    },
    {
      "inputs": [
        {
          "internalType": "string",
          "name": "_candidate",
          "type": "string"
        }
      ],
      "name": "vote",
      "outputs": [],
      "stateMutability": "nonpayable",
      "type": "function"
    }
  ],
  "bytecode": "0x6080604052348015600f57600080fd5b50610ea08061001f6000396000f3fe608060405234801561001057600080fd5b50600436106100615760003560e01c8062514d7a146100665780632e6997fe146100965780633477ee2e146100b4578063805265e5146100e45780638e739c4314610114578063fc36e15b14610144575b600080fd5b610080600480360381019061007b91906105f3565b610160565b60405161008d9190610655565b60405180910390f35b61009e61018e565b6040516100ab91906107b1565b60405180910390f35b6100ce60048036038101906100c991906107ff565b610267565b6040516100db9190610876565b60405180910390f35b6100fe60048036038101906100f991906105f3565b610313565b60405161010b9190610655565b60405180910390f35b61012e6004803603810190610129919061097e565b61033a565b60405161013b9190610a85565b60405180910390f35b61015e600480360381019061015991906105f3565b610405565b005b6000818051602081018201805184825260208301602085012081835280955050505050506000915090505481565b60606001805480602002602001604051908101604052809291908181526020016000905b8282101561025e5783829060005260206000200180546101d190610ad6565b80601f01602080910402602001604051908101604052809291908181526020018280546101fd90610ad6565b801561024a5780601f1061021f5761010080835404028352916020019161024a565b820191906000526020600020905b81548152906001019060200180831161022d57829003601f168201915b5050505050815260200190600101906101b2565b50505050905090565b6001818154811061027757600080fd5b90600052602060002001600091509050805461029290610ad6565b80601f01602080910402602001604051908101604052809291908181526020018280546102be90610ad6565b801561030b5780601f106102e05761010080835404028352916020019161030b565b820191906000526020600020905b8154815290600101906020018083116102ee57829003601f168201915b505050505081565b600080826040516103249190610b43565b9081526020016040518091039020549050919050565b60606000825167ffffffffffffffff811115610359576103586104c8565b5b6040519080825280602002602001820160405280156103875781602001602082028036833780820191505090505b50905060005b83518110156103fb5760008482815181106103ab576103aa610b5a565b5b60200260200101516040516103c09190610b43565b9081526020016040518091039020548282815181106103e2576103e1610b5a565b5b602002602001018181525050808060010191505061038d565b5080915050919050565b600080826040516104169190610b43565b908152602001604051809103902054036104605760018190806001815401808255809150506001900390600052602060002001600090919091909150908161045e9190610d35565b505b60016000826040516104729190610b43565b9081526020016040518091039020600082825461048f9190610e36565b9250508190555050565b6000604051905090565b600080fd5b600080fd5b600080fd5b600080fd5b6000601f19601f8301169050919050565b7f4e487b7100000000000000000000000000000000000000000000000000000000600052604160045260246000fd5b610500826104b7565b810181811067ffffffffffffffff8211171561051f5761051e6104c8565b5b80604052505050565b6000610532610499565b905061053e82826104f7565b919050565b600067ffffffffffffffff82111561055e5761055d6104c8565b5b610567826104b7565b9050602081019050919050565b82818337600083830152505050565b600061059661059184610543565b610528565b9050828152602081018484840111156105b2576105b16104b2565b5b6105bd848285610574565b509392505050565b600082601f8301126105da576105d96104ad565b5b81356105ea848260208601610583565b91505092915050565b600060208284031215610609576106086104a3565b5b600082013567ffffffffffffffff811115610627576106266104a8565b5b610633848285016105c5565b91505092915050565b6000819050919050565b61064f8161063c565b82525050565b600060208201905061066a6000830184610646565b92915050565b600081519050919050565b600082825260208201905092915050565b6000819050602082019050919050565b600081519050919050565b600082825260208201905092915050565b60005b838110156106d65780820151818401526020810190506106bb565b60008484015250505050565b60006106ed8261069c565b6106f781856106a7565b93506107078185602086016106b8565b610710816104b7565b840191505092915050565b600061072783836106e2565b905092915050565b6000602082019050919050565b600061074782610670565b610751818561067b565b9350836020820285016107638561068c565b8060005b8581101561079f5784840389528151610780858261071b565b945061078b8361072f565b925060208a01995050600181019050610767565b50829750879550505050505092915050565b600060208201905081810360008301526107cb818461073c565b905092915050565b6107dc8161063c565b81146107e757600080fd5b50565b6000813590506107f9816107d3565b92915050565b600060208284031215610815576108146104a3565b5b6000610823848285016107ea565b91505092915050565b600082825260208201905092915050565b60006108488261069c565b610852818561082c565b93506108628185602086016106b8565b61086b816104b7565b840191505092915050565b60006020820190508181036000830152610890818461083d565b905092915050565b600067ffffffffffffffff8211156108b3576108b26104c8565b5b602082029050602081019050919050565b600080fd5b60006108dc6108d784610898565b610528565b905080838252602082019050602084028301858111156108ff576108fe6108c4565b5b835b8181101561094657803567ffffffffffffffff811115610924576109236104ad565b5b80860161093189826105c5565b85526020850194505050602081019050610901565b5050509392505050565b600082601f830112610965576109646104ad565b5b81356109758482602086016108c9565b91505092915050565b600060208284031215610994576109936104a3565b5b600082013567ffffffffffffffff8111156109b2576109b16104a8565b5b6109be84828501610950565b91505092915050565b600081519050919050565b600082825260208201905092915050565b6000819050602082019050919050565b6109fc8161063c565b82525050565b6000610a0e83836109f3565b60208301905092915050565b6000602082019050919050565b6000610a32826109c7565b610a3c81856109d2565b9350610a47836109e3565b8060005b83811015610a78578151610a5f8882610a02565b9750610a6a83610a1a565b925050600181019050610a4b565b5085935050505092915050565b60006020820190508181036000830152610a9f8184610a27565b905092915050565b7f4e487b7100000000000000000000000000000000000000000000000000000000600052602260045260246000fd5b60006002820490506001821680610aee57607f821691505b602082108103610b0157610b00610aa7565b5b50919050565b600081905092915050565b6000610b1d8261069c565b610b278185610b07565b9350610b378185602086016106b8565b80840191505092915050565b6000610b4f8284610b12565b915081905092915050565b7f4e487b7100000000000000000000000000000000000000000000000000000000600052603260045260246000fd5b60008190508160005260206000209050919050565b60006020601f8301049050919050565b600082821b905092915050565b600060088302610beb7fffffffffffffffffffffffffffffffffffffffffffffffffffffffffffffffff82610bae565b610bf58683610bae565b95508019841693508086168417925050509392505050565b6000819050919050565b6000610c32610c2d610c288461063c565b610c0d565b61063c565b9050919050565b6000819050919050565b610c4c83610c17565b610c60610c5882610c39565b848454610bbb565b825550505050565b600090565b610c75610c68565b610c80818484610c43565b505050565b5b81811015610ca457610c99600082610c6d565b600181019050610c86565b5050565b601f821115610ce957610cba81610b89565b610cc384610b9e565b81016020851015610cd2578190505b610ce6610cde85610b9e565b830182610c85565b50505b505050565b600082821c905092915050565b6000610d0c60001984600802610cee565b1980831691505092915050565b6000610d258383610cfb565b9150826002028217905092915050565b610d3e8261069c565b67ffffffffffffffff811115610d5757610d566104c8565b5b610d618254610ad6565b610d6c828285610ca8565b600060209050601f831160018114610d9f5760008415610d8d578287015190505b610d978582610d19565b865550610dff565b601f198416610dad86610b89565b60005b82811015610dd557848901518255600182019150602085019450602081019050610db0565b86831015610df25784890151610dee601f891682610cfb565b8355505b6001600288020188555050505b505050505050565b7f4e487b7100000000000000000000000000000000000000000000000000000000600052601160045260246000fd5b6000610e418261063c565b9150610e4c8361063c565b9250828201905080821115610e6457610e63610e07565b5b9291505056fea26469706673582212208259c492e72d8332f1fb2978eadf9c42df08ea31113e00364dbe21c978016a7164736f6c634300081c0033",
  "linkReferences": {},
  "deployedLinkReferences": {}
}