{
  "_format": "hh-sol-artifact-1",
  "contractName": "Voting",
  "sourceName": "contracts/Voting.sol",
  "abi": [
    {
      "inputs": [],
      "name": "candidate",
      "outputs": [
        {
          "internalType": "string",
          "name": "",
          "type": "string"
        }
      ],
      "stateMutability": "view",
      "type": "function"
    },
    {
      "inputs": [],
      "name": "getVotes",
      "outputs": [
        {
          "internalType": "uint256",
          "name": "",
          "type": "uint256"
        }
      ],
      "stateMutability": "view",
      "type": "function"
    },
    {
      "inputs": [
        {
          "internalType": "string",
          "name": "_candidate",
          "type": "string"
        }
      ],
      "name": "vote",
      "outputs": [],
      "stateMutability": "nonpayable",
      "type": "function"
    },
    {
      "inputs": [],
      "name": "votes",
      "outputs": [
        {
          "internalType": "uint256",
          "name": "",
          "type": "uint256"
        }
      ],
      "stateMutability": "view",
      "type": "function"
    }
  ],
  "bytecode": "0x6080604052348015600f57600080fd5b506107808061001f6000396000f3fe608060405234801561001057600080fd5b506004361061004c5760003560e01c80630dc96015146100515780636c8381f81461006f578063e168c3ec1461008d578063fc36e15b146100ab575b600080fd5b6100596100c7565b60405161006691906101aa565b60405180910390f35b6100776100d1565b6040516100849190610255565b60405180910390f35b61009561015f565b6040516100a291906101aa565b60405180910390f35b6100c560048036038101906100c091906103c0565b610165565b005b6000600154905090565b600080546100de90610438565b80601f016020809104026020016040519081016040528092919081815260200182805461010a90610438565b80156101575780601f1061012c57610100808354040283529160200191610157565b820191906000526020600020905b81548152906001019060200180831161013a57829003601f168201915b505050505081565b60015481565b80600090816101749190610615565b5060018060008282546101879190610716565b9250508190555050565b6000819050919050565b6101a481610191565b82525050565b60006020820190506101bf600083018461019b565b92915050565b600081519050919050565b600082825260208201905092915050565b60005b838110156101ff5780820151818401526020810190506101e4565b60008484015250505050565b6000601f19601f8301169050919050565b6000610227826101c5565b61023181856101d0565b93506102418185602086016101e1565b61024a8161020b565b840191505092915050565b6000602082019050818103600083015261026f818461021c565b905092915050565b6000604051905090565b600080fd5b600080fd5b600080fd5b600080fd5b7f4e487b7100000000000000000000000000000000000000000000000000000000600052604160045260246000fd5b6102cd8261020b565b810181811067ffffffffffffffff821117156102ec576102eb610295565b5b80604052505050565b60006102ff610277565b905061030b82826102c4565b919050565b600067ffffffffffffffff82111561032b5761032a610295565b5b6103348261020b565b9050602081019050919050565b82818337600083830152505050565b600061036361035e84610310565b6102f5565b90508281526020810184848401111561037f5761037e610290565b5b61038a848285610341565b509392505050565b600082601f8301126103a7576103a661028b565b5b81356103b7848260208601610350565b91505092915050565b6000602082840312156103d6576103d5610281565b5b600082013567ffffffffffffffff8111156103f4576103f3610286565b5b61040084828501610392565b91505092915050565b7f4e487b7100000000000000000000000000000000000000000000000000000000600052602260045260246000fd5b6000600282049050600182168061045057607f821691505b60208210810361046357610462610409565b5b50919050565b60008190508160005260206000209050919050565b60006020601f8301049050919050565b600082821b905092915050565b6000600883026104cb7fffffffffffffffffffffffffffffffffffffffffffffffffffffffffffffffff8261048e565b6104d5868361048e565b95508019841693508086168417925050509392505050565b6000819050919050565b600061051261050d61050884610191565b6104ed565b610191565b9050919050565b6000819050919050565b61052c836104f7565b61054061053882610519565b84845461049b565b825550505050565b600090565b610555610548565b610560818484610523565b505050565b5b818110156105845761057960008261054d565b600181019050610566565b5050565b601f8211156105c95761059a81610469565b6105a38461047e565b810160208510156105b2578190505b6105c66105be8561047e565b830182610565565b50505b505050565b600082821c905092915050565b60006105ec600019846008026105ce565b1980831691505092915050565b600061060583836105db565b9150826002028217905092915050565b61061e826101c5565b67ffffffffffffffff81111561063757610636610295565b5b6106418254610438565b61064c828285610588565b600060209050601f83116001811461067f576000841561066d578287015190505b61067785826105f9565b8655506106df565b601f19841661068d86610469565b60005b828110156106b557848901518255600182019150602085019450602081019050610690565b868310156106d257848901516106ce601f8916826105db565b8355505b6001600288020188555050505b505050505050565b7f4e487b7100000000000000000000000000000000000000000000000000000000600052601160045260246000fd5b600061072182610191565b915061072c83610191565b9250828201905080821115610744576107436106e7565b5b9291505056fea2646970667358221220ea1cf2042bd8db0e325d3fa76cd4dba9c906ed396154ace17af9fe45a994397e64736f6c634300081c0033",
  "linkReferences": {},
  "deployedLinkReferences": {}
}